{
  "contractName": "Smarcet",
  "abi": [
    {
      "inputs": [],
      "payable": false,
      "stateMutability": "nonpayable",
      "type": "constructor"
    },
    {
      "anonymous": false,
      "inputs": [
        {
          "indexed": false,
          "internalType": "uint256",
          "name": "_id",
          "type": "uint256"
        },
        {
          "indexed": true,
          "internalType": "address",
          "name": "_seller",
          "type": "address"
        },
        {
          "indexed": true,
          "internalType": "address",
          "name": "_buyer",
          "type": "address"
        },
        {
          "indexed": false,
          "internalType": "uint256",
          "name": "_price",
          "type": "uint256"
        }
      ],
      "name": "CreateTrade",
      "type": "event"
    },
    {
      "anonymous": false,
      "inputs": [
        {
          "indexed": false,
          "internalType": "uint256",
          "name": "_id",
          "type": "uint256"
        },
        {
          "indexed": true,
          "internalType": "address",
          "name": "_from",
          "type": "address"
        },
        {
          "indexed": true,
          "internalType": "address",
          "name": "_to",
          "type": "address"
        },
        {
          "indexed": false,
          "internalType": "uint256",
          "name": "_price",
          "type": "uint256"
        }
      ],
      "name": "Transfer",
      "type": "event"
    },
    {
      "constant": false,
      "inputs": [
        {
          "internalType": "uint256",
          "name": "_id",
          "type": "uint256"
        },
        {
          "internalType": "address payable",
          "name": "_seller",
          "type": "address"
        },
        {
          "internalType": "address payable",
          "name": "_buyer",
          "type": "address"
        },
        {
          "internalType": "uint256",
          "name": "_price",
          "type": "uint256"
        }
      ],
      "name": "createTrade",
      "outputs": [],
      "payable": false,
      "stateMutability": "nonpayable",
      "type": "function"
    },
    {
      "constant": false,
      "inputs": [
        {
          "internalType": "uint256",
          "name": "_id",
          "type": "uint256"
        }
      ],
      "name": "transferFromBuyerToPlatform",
      "outputs": [],
      "payable": true,
      "stateMutability": "payable",
      "type": "function"
    },
    {
      "constant": false,
      "inputs": [
        {
          "internalType": "uint256",
          "name": "_id",
          "type": "uint256"
        }
      ],
      "name": "transferFromPlatformToSeller",
      "outputs": [],
      "payable": true,
      "stateMutability": "payable",
      "type": "function"
    },
    {
      "constant": false,
      "inputs": [
        {
          "internalType": "uint256",
          "name": "_id",
          "type": "uint256"
        }
      ],
      "name": "transferFromPlatformToBuyer",
      "outputs": [],
      "payable": true,
      "stateMutability": "payable",
      "type": "function"
    },
    {
      "constant": true,
      "inputs": [],
      "name": "getOwner",
      "outputs": [
        {
          "internalType": "address",
          "name": "",
          "type": "address"
        }
      ],
      "payable": false,
      "stateMutability": "view",
      "type": "function"
    },
    {
      "constant": true,
      "inputs": [
        {
          "internalType": "uint256",
          "name": "_id",
          "type": "uint256"
        }
      ],
      "name": "getTradeStage",
      "outputs": [
        {
          "internalType": "uint8",
          "name": "",
          "type": "uint8"
        }
      ],
      "payable": false,
      "stateMutability": "view",
      "type": "function"
    },
    {
      "constant": true,
      "inputs": [
        {
          "internalType": "uint256",
          "name": "_id",
          "type": "uint256"
        }
      ],
      "name": "getTradeIsOpen",
      "outputs": [
        {
          "internalType": "bool",
          "name": "",
          "type": "bool"
        }
      ],
      "payable": false,
      "stateMutability": "view",
      "type": "function"
    },
    {
      "constant": true,
      "inputs": [
        {
          "internalType": "uint256",
          "name": "_id",
          "type": "uint256"
        }
      ],
      "name": "getTradeBuyer",
      "outputs": [
        {
          "internalType": "address",
          "name": "",
          "type": "address"
        }
      ],
      "payable": false,
      "stateMutability": "view",
      "type": "function"
    },
    {
      "constant": true,
      "inputs": [
        {
          "internalType": "uint256",
          "name": "_id",
          "type": "uint256"
        }
      ],
      "name": "getTradeSeller",
      "outputs": [
        {
          "internalType": "address",
          "name": "",
          "type": "address"
        }
      ],
      "payable": false,
      "stateMutability": "view",
      "type": "function"
    },
    {
      "constant": true,
      "inputs": [
        {
          "internalType": "uint256",
          "name": "_id",
          "type": "uint256"
        }
      ],
      "name": "getTradePrice",
      "outputs": [
        {
          "internalType": "uint256",
          "name": "",
          "type": "uint256"
        }
      ],
      "payable": false,
      "stateMutability": "view",
      "type": "function"
    }
  ],
  "bytecode": "0x608060405234801561001057600080fd5b50326000806101000a81548173ffffffffffffffffffffffffffffffffffffffff021916908373ffffffffffffffffffffffffffffffffffffffff160217905550611618806100606000396000f3fe6080604052600436106100915760003560e01c80639e235dc9116100595780639e235dc914610213578063b2f8af7814610298578063d71de9d0146102eb578063ee4cc3b314610319578063f7e369fb1461039457610091565b80630bb8a4651461009657806315d7521e146100e557806360edffb9146101135780637c742c7a1461018e578063893d20e8146101bc575b600080fd5b3480156100a257600080fd5b506100cf600480360360208110156100b957600080fd5b81019080803590602001909291905050506103e9565b6040518082815260200191505060405180910390f35b610111600480360360208110156100fb57600080fd5b81019080803590602001909291905050506104cb565b005b34801561011f57600080fd5b5061014c6004803603602081101561013657600080fd5b81019080803590602001909291905050506107de565b604051808273ffffffffffffffffffffffffffffffffffffffff1673ffffffffffffffffffffffffffffffffffffffff16815260200191505060405180910390f35b6101ba600480360360208110156101a457600080fd5b81019080803590602001909291905050506108e0565b005b3480156101c857600080fd5b506101d1610bf3565b604051808273ffffffffffffffffffffffffffffffffffffffff1673ffffffffffffffffffffffffffffffffffffffff16815260200191505060405180910390f35b34801561021f57600080fd5b506102966004803603608081101561023657600080fd5b8101908080359060200190929190803573ffffffffffffffffffffffffffffffffffffffff169060200190929190803573ffffffffffffffffffffffffffffffffffffffff16906020019092919080359060200190929190505050610cde565b005b3480156102a457600080fd5b506102d1600480360360208110156102bb57600080fd5b810190808035906020019092919050505061102d565b604051808215151515815260200191505060405180910390f35b6103176004803603602081101561030157600080fd5b810190808035906020019092919050505061111c565b005b34801561032557600080fd5b506103526004803603602081101561033c57600080fd5b81019080803590602001909291905050506113cf565b604051808273ffffffffffffffffffffffffffffffffffffffff1673ffffffffffffffffffffffffffffffffffffffff16815260200191505060405180910390f35b3480156103a057600080fd5b506103cd600480360360208110156103b757600080fd5b81019080803590602001909291905050506114d1565b604051808260ff1660ff16815260200191505060405180910390f35b60008060009054906101000a900473ffffffffffffffffffffffffffffffffffffffff1673ffffffffffffffffffffffffffffffffffffffff163373ffffffffffffffffffffffffffffffffffffffff16146104ad576040517f08c379a000000000000000000000000000000000000000000000000000000000815260040180806020018281038252601a8152602001807f4f6e6c7920706c6174666f726d20697320617661696c61626c6500000000000081525060200191505060405180910390fd5b60016000838152602001908152602001600020600201549050919050565b6000809054906101000a900473ffffffffffffffffffffffffffffffffffffffff1673ffffffffffffffffffffffffffffffffffffffff163373ffffffffffffffffffffffffffffffffffffffff161461058d576040517f08c379a000000000000000000000000000000000000000000000000000000000815260040180806020018281038252601a8152602001807f4f6e6c7920706c6174666f726d20697320617661696c61626c6500000000000081525060200191505060405180910390fd5b600115156001600083815260200190815260200160002060030160019054906101000a900460ff1615151480156105ea575060026001600083815260200190815260200160002060030160009054906101000a900460ff1660ff16145b61065c576040517f08c379a00000000000000000000000000000000000000000000000000000000081526004018080602001828103825260128152602001807f49742773206e6f7420617661696c61626c65000000000000000000000000000081525060200191505060405180910390fd5b60036001600083815260200190815260200160002060030160006101000a81548160ff021916908360ff16021790555060006001600083815260200190815260200160002060030160016101000a81548160ff0219169083151502179055506001600082815260200190815260200160002060000160009054906101000a900473ffffffffffffffffffffffffffffffffffffffff1673ffffffffffffffffffffffffffffffffffffffff166108fc349081150290604051600060405180830381858888f19350505050158015610737573d6000803e3d6000fd5b506001600082815260200190815260200160002060000160009054906101000a900473ffffffffffffffffffffffffffffffffffffffff1673ffffffffffffffffffffffffffffffffffffffff163373ffffffffffffffffffffffffffffffffffffffff167ff2dbd98d79f00f7aff338b824931d607bfcc63d47307162470f25a055102d3b08334604051808381526020018281526020019250505060405180910390a350565b60008060009054906101000a900473ffffffffffffffffffffffffffffffffffffffff1673ffffffffffffffffffffffffffffffffffffffff163373ffffffffffffffffffffffffffffffffffffffff16146108a2576040517f08c379a000000000000000000000000000000000000000000000000000000000815260040180806020018281038252601a8152602001807f4f6e6c7920706c6174666f726d20697320617661696c61626c6500000000000081525060200191505060405180910390fd5b6001600083815260200190815260200160002060010160009054906101000a900473ffffffffffffffffffffffffffffffffffffffff169050919050565b6000809054906101000a900473ffffffffffffffffffffffffffffffffffffffff1673ffffffffffffffffffffffffffffffffffffffff163373ffffffffffffffffffffffffffffffffffffffff16146109a2576040517f08c379a000000000000000000000000000000000000000000000000000000000815260040180806020018281038252601a8152602001807f4f6e6c7920706c6174666f726d20697320617661696c61626c6500000000000081525060200191505060405180910390fd5b600115156001600083815260200190815260200160002060030160019054906101000a900460ff1615151480156109ff575060026001600083815260200190815260200160002060030160009054906101000a900460ff1660ff16145b610a71576040517f08c379a00000000000000000000000000000000000000000000000000000000081526004018080602001828103825260128152602001807f49742773206e6f7420617661696c61626c65000000000000000000000000000081525060200191505060405180910390fd5b60036001600083815260200190815260200160002060030160006101000a81548160ff021916908360ff16021790555060006001600083815260200190815260200160002060030160016101000a81548160ff0219169083151502179055506001600082815260200190815260200160002060010160009054906101000a900473ffffffffffffffffffffffffffffffffffffffff1673ffffffffffffffffffffffffffffffffffffffff166108fc349081150290604051600060405180830381858888f19350505050158015610b4c573d6000803e3d6000fd5b506001600082815260200190815260200160002060010160009054906101000a900473ffffffffffffffffffffffffffffffffffffffff1673ffffffffffffffffffffffffffffffffffffffff163373ffffffffffffffffffffffffffffffffffffffff167ff2dbd98d79f00f7aff338b824931d607bfcc63d47307162470f25a055102d3b08334604051808381526020018281526020019250505060405180910390a350565b60008060009054906101000a900473ffffffffffffffffffffffffffffffffffffffff1673ffffffffffffffffffffffffffffffffffffffff163373ffffffffffffffffffffffffffffffffffffffff1614610cb7576040517f08c379a000000000000000000000000000000000000000000000000000000000815260040180806020018281038252601a8152602001807f4f6e6c7920706c6174666f726d20697320617661696c61626c6500000000000081525060200191505060405180910390fd5b6000809054906101000a900473ffffffffffffffffffffffffffffffffffffffff16905090565b6000809054906101000a900473ffffffffffffffffffffffffffffffffffffffff1673ffffffffffffffffffffffffffffffffffffffff163373ffffffffffffffffffffffffffffffffffffffff1614610da0576040517f08c379a000000000000000000000000000000000000000000000000000000000815260040180806020018281038252601a8152602001807f4f6e6c7920706c6174666f726d20697320617661696c61626c6500000000000081525060200191505060405180910390fd5b83600015156001600083815260200190815260200160002060030160019054906101000a900460ff161515148015610dfe575060006001600083815260200190815260200160002060030160009054906101000a900460ff1660ff16145b610e70576040517f08c379a00000000000000000000000000000000000000000000000000000000081526004018080602001828103825260178152602001807f54686973207472616465206973207573696e67206e6f7700000000000000000081525060200191505060405180910390fd5b6040518060a001604052808573ffffffffffffffffffffffffffffffffffffffff1681526020018473ffffffffffffffffffffffffffffffffffffffff168152602001838152602001600160ff168152602001600115158152506001600087815260200190815260200160002060008201518160000160006101000a81548173ffffffffffffffffffffffffffffffffffffffff021916908373ffffffffffffffffffffffffffffffffffffffff16021790555060208201518160010160006101000a81548173ffffffffffffffffffffffffffffffffffffffff021916908373ffffffffffffffffffffffffffffffffffffffff1602179055506040820151816002015560608201518160030160006101000a81548160ff021916908360ff16021790555060808201518160030160016101000a81548160ff0219169083151502179055509050508273ffffffffffffffffffffffffffffffffffffffff168473ffffffffffffffffffffffffffffffffffffffff167fec16055b5b6ecb313865a3862d1d169101c9700959b7cae5bfb25c0f319e97de8785604051808381526020018281526020019250505060405180910390a35050505050565b60008060009054906101000a900473ffffffffffffffffffffffffffffffffffffffff1673ffffffffffffffffffffffffffffffffffffffff163373ffffffffffffffffffffffffffffffffffffffff16146110f1576040517f08c379a000000000000000000000000000000000000000000000000000000000815260040180806020018281038252601a8152602001807f4f6e6c7920706c6174666f726d20697320617661696c61626c6500000000000081525060200191505060405180910390fd5b6001600083815260200190815260200160002060030160019054906101000a900460ff169050919050565b806001600082815260200190815260200160002060010160009054906101000a900473ffffffffffffffffffffffffffffffffffffffff1673ffffffffffffffffffffffffffffffffffffffff163373ffffffffffffffffffffffffffffffffffffffff16146111d7576040517f08c379a00000000000000000000000000000000000000000000000000000000081526004018080602001828103825260238152602001806115c16023913960400191505060405180910390fd5b600115156001600084815260200190815260200160002060030160019054906101000a900460ff1615151480156112335750600180600084815260200190815260200160002060030160009054906101000a900460ff1660ff16145b6112a5576040517f08c379a00000000000000000000000000000000000000000000000000000000081526004018080602001828103825260128152602001807f49742773206e6f7420617661696c61626c65000000000000000000000000000081525060200191505060405180910390fd5b60026001600084815260200190815260200160002060030160006101000a81548160ff021916908360ff1602179055506000809054906101000a900473ffffffffffffffffffffffffffffffffffffffff1673ffffffffffffffffffffffffffffffffffffffff166108fc349081150290604051600060405180830381858888f1935050505015801561133c573d6000803e3d6000fd5b506000809054906101000a900473ffffffffffffffffffffffffffffffffffffffff1673ffffffffffffffffffffffffffffffffffffffff163373ffffffffffffffffffffffffffffffffffffffff167ff2dbd98d79f00f7aff338b824931d607bfcc63d47307162470f25a055102d3b08434604051808381526020018281526020019250505060405180910390a35050565b60008060009054906101000a900473ffffffffffffffffffffffffffffffffffffffff1673ffffffffffffffffffffffffffffffffffffffff163373ffffffffffffffffffffffffffffffffffffffff1614611493576040517f08c379a000000000000000000000000000000000000000000000000000000000815260040180806020018281038252601a8152602001807f4f6e6c7920706c6174666f726d20697320617661696c61626c6500000000000081525060200191505060405180910390fd5b6001600083815260200190815260200160002060000160009054906101000a900473ffffffffffffffffffffffffffffffffffffffff169050919050565b60008060009054906101000a900473ffffffffffffffffffffffffffffffffffffffff1673ffffffffffffffffffffffffffffffffffffffff163373ffffffffffffffffffffffffffffffffffffffff1614611595576040517f08c379a000000000000000000000000000000000000000000000000000000000815260040180806020018281038252601a8152602001807f4f6e6c7920706c6174666f726d20697320617661696c61626c6500000000000081525060200191505060405180910390fd5b6001600083815260200190815260200160002060030160009054906101000a900460ff16905091905056fe596f7520617265206e6f742074686520627579657220696e2074686973207472616465a265627a7a7231582035d0ae0065c3b57991b8b896d7a3bd3ae1b09ef539f51c221b62af89acfde0a364736f6c63430005100032",
  "source": "pragma solidity >=0.4.25 <0.7.0;\n\ncontract Smarcet {\n    address payable platform;\n\n    // 하나의 거래 객체\n    struct Trade {\n        address payable seller;\n        address payable buyer;\n        uint256 price;\n        uint8 stage;\n        bool isOpen;\n    }\n\n    mapping(uint256 => Trade) Trades;\n\n    // 생성자\n    constructor() public {\n        platform = tx.origin;\n    }\n\n    // 해당 인덱스를 사용할 수 있는지 검사\n    modifier creatable(uint256 _id) {\n        require(\n            Trades[_id].isOpen == false && Trades[_id].stage == 0,\n            \"This trade is using now\"\n        );\n        _;\n    }\n\n    // 플랫폼만 이용 가능\n    modifier onlyPlatform() {\n        require(msg.sender == platform, \"Only platform is available\");\n        _;\n    }\n\n    // 구매자만 이용 가능\n    modifier onlyBuyer(uint256 _id) {\n        require(\n            msg.sender == Trades[_id].buyer,\n            \"You are not the buyer in this trade\"\n        );\n        _;\n    }\n\n    event CreateTrade(\n        uint256 _id,\n        address indexed _seller,\n        address indexed _buyer,\n        uint256 _price\n    );\n\n    event Transfer(\n        uint256 _id,\n        address indexed _from,\n        address indexed _to,\n        uint256 _price\n    );\n\n    // 새로운 거래 생성 함수\n    function createTrade(\n        uint256 _id,\n        address payable _seller,\n        address payable _buyer,\n        uint256 _price\n    ) public onlyPlatform creatable(_id) {\n        Trades[_id] = Trade(_seller, _buyer, _price, 1, true);\n        emit CreateTrade(_id, _seller, _buyer, _price);\n    }\n\n    // 구매자 -> 플랫폼 송금 함수 (거래 시작)\n    function transferFromBuyerToPlatform(uint256 _id)\n        public\n        payable\n        onlyBuyer(_id)\n    {\n        require(\n            Trades[_id].isOpen == true && Trades[_id].stage == 1,\n            \"It's not available\"\n        );\n        Trades[_id].stage = 2;\n        platform.transfer(msg.value);\n        emit Transfer(_id, msg.sender, platform, msg.value);\n    }\n\n    // 플랫폼 -> 판매자 송금 함수 (거래 정상 종료)\n    function transferFromPlatformToSeller(uint256 _id)\n        public\n        payable\n        onlyPlatform\n    {\n        require(\n            Trades[_id].isOpen == true && Trades[_id].stage == 2,\n            \"It's not available\"\n        );\n        Trades[_id].stage = 3;\n        Trades[_id].isOpen = false;\n        Trades[_id].seller.transfer(msg.value);\n        emit Transfer(_id, msg.sender, Trades[_id].seller, msg.value);\n    }\n\n    // 플랫폼 -> 구매자 송금 함수 (거래 불발)\n    function transferFromPlatformToBuyer(uint256 _id)\n        public\n        payable\n        onlyPlatform\n    {\n        require(\n            Trades[_id].isOpen == true && Trades[_id].stage == 2,\n            \"It's not available\"\n        );\n        Trades[_id].stage = 3;\n        Trades[_id].isOpen = false;\n        Trades[_id].buyer.transfer(msg.value);\n        emit Transfer(_id, msg.sender, Trades[_id].buyer, msg.value);\n    }\n\n    // 플랫폼 지갑 주소 조회\n    function getOwner() public view onlyPlatform returns (address) {\n        return platform;\n    }\n\n    /* 거래 상태 (진행상황, 구매자/판매자 주소 등) 조회 - 플랫폼만 가능 */\n    function getTradeStage(uint256 _id)\n        public\n        view\n        onlyPlatform\n        returns (uint8)\n    {\n        return Trades[_id].stage;\n    }\n\n    function getTradeIsOpen(uint256 _id)\n        public\n        view\n        onlyPlatform\n        returns (bool)\n    {\n        return Trades[_id].isOpen;\n    }\n\n    function getTradeBuyer(uint256 _id)\n        public\n        view\n        onlyPlatform\n        returns (address)\n    {\n        return Trades[_id].buyer;\n    }\n\n    function getTradeSeller(uint256 _id)\n        public\n        view\n        onlyPlatform\n        returns (address)\n    {\n        return Trades[_id].seller;\n    }\n\n    function getTradePrice(uint256 _id)\n        public\n        view\n        onlyPlatform\n        returns (uint256)\n    {\n        return Trades[_id].price;\n    }\n}\n",
  "sourcePath": "/Users/keonhokim/Documents/work/truffle/truffle-express/contracts/Smarcet.sol",
  "compiler": {
    "name": "solc",
    "version": "0.5.16+commit.9c3226ce.Emscripten.clang"
  },
  "schemaVersion": "3.4.1",
  "updatedAt": "2021-06-01T21:02:08.602Z",
  "networkType": "ethereum",
  "devdoc": {
    "methods": {}
  },
  "userdoc": {
    "methods": {}
  }
}